{
  "_format": "hh-sol-artifact-1",
  "contractName": "RealEstateContract",
  "sourceName": "contracts/RealEstateContract.sol",
  "abi": [
    {
      "inputs": [],
      "stateMutability": "nonpayable",
      "type": "constructor"
    },
    {
      "anonymous": false,
      "inputs": [
        {
          "indexed": true,
          "internalType": "bytes32",
          "name": "id",
          "type": "bytes32"
        }
      ],
      "name": "ChainlinkCancelled",
      "type": "event"
    },
    {
      "anonymous": false,
      "inputs": [
        {
          "indexed": true,
          "internalType": "bytes32",
          "name": "id",
          "type": "bytes32"
        }
      ],
      "name": "ChainlinkFulfilled",
      "type": "event"
    },
    {
      "anonymous": false,
      "inputs": [
        {
          "indexed": true,
          "internalType": "bytes32",
          "name": "id",
          "type": "bytes32"
        }
      ],
      "name": "ChainlinkRequested",
      "type": "event"
    },
    {
      "inputs": [
        {
          "internalType": "bytes32",
          "name": "_requestId",
          "type": "bytes32"
        },
        {
          "internalType": "uint256",
          "name": "_data",
          "type": "uint256"
        }
      ],
      "name": "fulfillProspectNow",
      "outputs": [],
      "stateMutability": "nonpayable",
      "type": "function"
    },
    {
      "inputs": [
        {
          "internalType": "uint256",
          "name": "_index",
          "type": "uint256"
        }
      ],
      "name": "getRealEstate",
      "outputs": [
        {
          "internalType": "address payable",
          "name": "",
          "type": "address"
        },
        {
          "internalType": "string",
          "name": "",
          "type": "string"
        },
        {
          "internalType": "string",
          "name": "",
          "type": "string"
        },
        {
          "internalType": "string",
          "name": "",
          "type": "string"
        },
        {
          "internalType": "string",
          "name": "",
          "type": "string"
        },
        {
          "internalType": "uint256",
          "name": "",
          "type": "uint256"
        }
      ],
      "stateMutability": "view",
      "type": "function"
    },
    {
      "inputs": [
        {
          "internalType": "address",
          "name": "",
          "type": "address"
        }
      ],
      "name": "myMap",
      "outputs": [
        {
          "internalType": "string",
          "name": "",
          "type": "string"
        }
      ],
      "stateMutability": "view",
      "type": "function"
    },
    {
      "inputs": [],
      "name": "prospectNowData",
      "outputs": [
        {
          "internalType": "uint256",
          "name": "",
          "type": "uint256"
        }
      ],
      "stateMutability": "view",
      "type": "function"
    },
    {
      "inputs": [],
      "name": "realEstateLength",
      "outputs": [
        {
          "internalType": "uint256",
          "name": "",
          "type": "uint256"
        }
      ],
      "stateMutability": "view",
      "type": "function"
    },
    {
      "inputs": [
        {
          "internalType": "address",
          "name": "_addr",
          "type": "address"
        }
      ],
      "name": "remove",
      "outputs": [],
      "stateMutability": "nonpayable",
      "type": "function"
    },
    {
      "inputs": [
        {
          "internalType": "string",
          "name": "_name",
          "type": "string"
        },
        {
          "internalType": "string",
          "name": "_image",
          "type": "string"
        },
        {
          "internalType": "string",
          "name": "_description",
          "type": "string"
        },
        {
          "internalType": "string",
          "name": "_location",
          "type": "string"
        },
        {
          "internalType": "uint256",
          "name": "_price",
          "type": "uint256"
        }
      ],
      "name": "setRealEstate",
      "outputs": [],
      "stateMutability": "nonpayable",
      "type": "function"
    },
    {
      "inputs": [
        {
          "internalType": "string",
          "name": "_propertyZip",
          "type": "string"
        }
      ],
      "name": "setZipState",
      "outputs": [
        {
          "internalType": "bytes32",
          "name": "requestId",
          "type": "bytes32"
        }
      ],
      "stateMutability": "nonpayable",
      "type": "function"
    }
  ],
  "bytecode": "0x608060405260016004556000600b553480156200001b57600080fd5b506200002c620000bd60201b60201c565b73ff07c97631ff3bab5e5e5660cdf47aded8d4d4fd600660006101000a81548173ffffffffffffffffffffffffffffffffffffffff021916908373ffffffffffffffffffffffffffffffffffffffff1602179055507f633964663862346534306134343932376161366538333961336166383263653960078190555067016345785d8a00006008819055506200023a565b6200016373c89bd4e1632d3a43cb03aaad5262cbe4038bc57173ffffffffffffffffffffffffffffffffffffffff166338cc48316040518163ffffffff1660e01b815260040160206040518083038186803b1580156200011c57600080fd5b505afa15801562000131573d6000803e3d6000fd5b505050506040513d601f19601f82011682018060405250810190620001579190620001c0565b6200016560201b60201c565b565b80600260006101000a81548173ffffffffffffffffffffffffffffffffffffffff021916908373ffffffffffffffffffffffffffffffffffffffff16021790555050565b600081519050620001ba8162000220565b92915050565b600060208284031215620001d357600080fd5b6000620001e384828501620001a9565b91505092915050565b6000620001f98262000200565b9050919050565b600073ffffffffffffffffffffffffffffffffffffffff82169050919050565b6200022b81620001ec565b81146200023757600080fd5b50565b611f4c806200024a6000396000f3fe608060405234801561001057600080fd5b50600436106100885760003560e01c806377ac95181161005b57806377ac951814610113578063a5a79c0414610148578063b589e27114610164578063fdaafd2d1461019457610088565b80630843aca01461008d57806327cbd529146100ab57806329092d0e146100db578063742790c6146100f7575b600080fd5b6100956101b2565b6040516100a2919061180d565b60405180910390f35b6100c560048036038101906100c091906112e1565b6101b8565b6040516100d2919061178b565b60405180910390f35b6100f560048036038101906100f091906112e1565b610258565b005b610111600480360381019061010c91906113b0565b6102a6565b005b61012d60048036038101906101289190611487565b610428565b60405161013f96959493929190611630565b60405180910390f35b610162600480360381019061015d9190611333565b6106c8565b005b61017e6004803603810190610179919061136f565b6107d9565b60405161018b9190611770565b60405180910390f35b61019c6108cd565b6040516101a9919061180d565b60405180910390f35b600c5481565b600960205280600052604060002060009150905080546101d790611c01565b80601f016020809104026020016040519081016040528092919081815260200182805461020390611c01565b80156102505780601f1061022557610100808354040283529160200191610250565b820191906000526020600020905b81548152906001019060200180831161023357829003601f168201915b505050505081565b600960008273ffffffffffffffffffffffffffffffffffffffff1673ffffffffffffffffffffffffffffffffffffffff16815260200190815260200160002060006102a391906110bb565b50565b600081116102e9576040517f08c379a00000000000000000000000000000000000000000000000000000000081526004016102e0906117cd565b60405180910390fd5b6040518060c001604052803373ffffffffffffffffffffffffffffffffffffffff16815260200186815260200185815260200184815260200183815260200182815250600a6000600b54815260200190815260200160002060008201518160000160006101000a81548173ffffffffffffffffffffffffffffffffffffffff021916908373ffffffffffffffffffffffffffffffffffffffff16021790555060208201518160010190805190602001906103a49291906110fb565b5060408201518160020190805190602001906103c19291906110fb565b5060608201518160030190805190602001906103de9291906110fb565b5060808201518160040190805190602001906103fb9291906110fb565b5060a08201518160050155905050600b600081548092919061041c90611c64565b91905055505050505050565b6000606080606080600080600a600089815260200190815260200160002090508060000160009054906101000a900473ffffffffffffffffffffffffffffffffffffffff1681600101826002018360030184600401856005015484805461048e90611c01565b80601f01602080910402602001604051908101604052809291908181526020018280546104ba90611c01565b80156105075780601f106104dc57610100808354040283529160200191610507565b820191906000526020600020905b8154815290600101906020018083116104ea57829003601f168201915b5050505050945083805461051a90611c01565b80601f016020809104026020016040519081016040528092919081815260200182805461054690611c01565b80156105935780601f1061056857610100808354040283529160200191610593565b820191906000526020600020905b81548152906001019060200180831161057657829003601f168201915b505050505093508280546105a690611c01565b80601f01602080910402602001604051908101604052809291908181526020018280546105d290611c01565b801561061f5780601f106105f45761010080835404028352916020019161061f565b820191906000526020600020905b81548152906001019060200180831161060257829003601f168201915b5050505050925081805461063290611c01565b80601f016020809104026020016040519081016040528092919081815260200182805461065e90611c01565b80156106ab5780601f10610680576101008083540402835291602001916106ab565b820191906000526020600020905b81548152906001019060200180831161068e57829003601f168201915b505050505091509650965096509650965096505091939550919395565b816005600082815260200190815260200160002060009054906101000a900473ffffffffffffffffffffffffffffffffffffffff1673ffffffffffffffffffffffffffffffffffffffff163373ffffffffffffffffffffffffffffffffffffffff161461076a576040517f08c379a0000000000000000000000000000000000000000000000000000000008152600401610761906117ed565b60405180910390fd5b6005600082815260200190815260200160002060006101000a81549073ffffffffffffffffffffffffffffffffffffffff0219169055807f7cc135e0cebb02c3480ae5d74d377283180a2601f8f644edf7987b009316c63a60405160405180910390a281600c81905550505050565b6000806107f06007543063a5a79c0460e01b6108d3565b905061083c6040518060400160405280600b81526020017f70726f70657274795a697000000000000000000000000000000000000000000081525084836109049092919063ffffffff16565b600033905083600960008373ffffffffffffffffffffffffffffffffffffffff1673ffffffffffffffffffffffffffffffffffffffff16815260200190815260200160002090805190602001906108949291906110fb565b506108c4600660009054906101000a900473ffffffffffffffffffffffffffffffffffffffff1683600854610937565b92505050919050565b600b5481565b6108db611181565b6108e3611181565b6108fa85858584610957909392919063ffffffff16565b9150509392505050565b61091b828460800151610a0790919063ffffffff16565b610932818460800151610a0790919063ffffffff16565b505050565b600061094e8484846001634042994660e01b610a2c565b90509392505050565b61095f611181565b61096f8560800151610100610c94565b508385600001818152505082856020019073ffffffffffffffffffffffffffffffffffffffff16908173ffffffffffffffffffffffffffffffffffffffff16815250508185604001907bffffffffffffffffffffffffffffffffffffffffffffffffffffffff191690817bffffffffffffffffffffffffffffffffffffffffffffffffffffffff191681525050849050949350505050565b610a148260038351610cfe565b610a278183610e4390919063ffffffff16565b505050565b600030600454604051602001610a43929190611604565b604051602081830303815290604052805190602001209050600454856060018181525050856005600083815260200190815260200160002060006101000a81548173ffffffffffffffffffffffffffffffffffffffff021916908373ffffffffffffffffffffffffffffffffffffffff160217905550807fb5e6e01e79f91267dc17b4e6314d5d4d03593d2ceee0fbb452b750bd70ea5af960405160405180910390a2600082600080886000015189602001518a604001518b606001518a8d6080015160000151604051602401610b219897969594939291906116ad565b604051602081830303815290604052907bffffffffffffffffffffffffffffffffffffffffffffffffffffffff19166020820180517bffffffffffffffffffffffffffffffffffffffffffffffffffffffff83818316178352505050509050600260009054906101000a900473ffffffffffffffffffffffffffffffffffffffff1673ffffffffffffffffffffffffffffffffffffffff16634000aea08887846040518463ffffffff1660e01b8152600401610bdf93929190611732565b602060405180830381600087803b158015610bf957600080fd5b505af1158015610c0d573d6000803e3d6000fd5b505050506040513d601f19601f82011682018060405250810190610c31919061130a565b610c70576040517f08c379a0000000000000000000000000000000000000000000000000000000008152600401610c67906117ad565b60405180910390fd5b600160046000828254610c8391906118b6565b925050819055505095945050505050565b610c9c6111ee565b6000602083610cab9190611cdb565b14610cd757602082610cbd9190611cdb565b6020610cc99190611ad7565b82610cd491906118b6565b91505b81836020018181525050604051808452600081528281016020016040525082905092915050565b60178111610d2b57610d258160058460ff16901b60ff161784610e6590919063ffffffff16565b50610e3e565b60ff8111610d6d57610d50601860058460ff16901b1784610e6590919063ffffffff16565b50610d6781600185610e859092919063ffffffff16565b50610e3d565b61ffff8111610db057610d93601960058460ff16901b1784610e6590919063ffffffff16565b50610daa81600285610e859092919063ffffffff16565b50610e3c565b63ffffffff8111610df557610dd8601a60058460ff16901b1784610e6590919063ffffffff16565b50610def81600485610e859092919063ffffffff16565b50610e3b565b67ffffffffffffffff8111610e3a57610e21601b60058460ff16901b1784610e6590919063ffffffff16565b50610e3881600885610e859092919063ffffffff16565b505b5b5b5b5b505050565b610e4b6111ee565b610e5d83846000015151848551610ea7565b905092915050565b610e6d6111ee565b610e7d8384600001515184610f96565b905092915050565b610e8d6111ee565b610e9e848560000151518585610fed565b90509392505050565b610eaf6111ee565b8251821115610ebd57600080fd5b84602001518285610ece91906118b6565b1115610f0357610f02856002610ef388602001518887610eee91906118b6565b61107b565b610efd9190611a7d565b611097565b5b600080865180518760208301019350808887011115610f225787860182525b60208701925050505b60208410610f695780518252602082610f4491906118b6565b9150602081610f5391906118b6565b9050602084610f629190611ad7565b9350610f2b565b60006001856020036101000a03905080198251168184511681811785525050508692505050949350505050565b610f9e6111ee565b83602001518310610fc457610fc38460028660200151610fbe9190611a7d565b611097565b5b8351805160208583010184815381861415610fe0576001820183525b5050508390509392505050565b610ff56111ee565b8460200151848361100691906118b6565b111561102e5761102d856002868561101e91906118b6565b6110289190611a7d565b611097565b5b6000600183610100611040919061195f565b61104a9190611ad7565b9050855183868201018583198251161781528151858801111561106d5784870182525b505085915050949350505050565b60008183111561108d57829050611091565b8190505b92915050565b6000826000015190506110aa8383610c94565b506110b58382610e43565b50505050565b5080546110c790611c01565b6000825580601f106110d957506110f8565b601f0160209004906000526020600020908101906110f79190611208565b5b50565b82805461110790611c01565b90600052602060002090601f0160209004810192826111295760008555611170565b82601f1061114257805160ff1916838001178555611170565b82800160010185558215611170579182015b8281111561116f578251825591602001919060010190611154565b5b50905061117d9190611208565b5090565b6040518060a0016040528060008019168152602001600073ffffffffffffffffffffffffffffffffffffffff16815260200160007bffffffffffffffffffffffffffffffffffffffffffffffffffffffff19168152602001600081526020016111e86111ee565b81525090565b604051806040016040528060608152602001600081525090565b5b80821115611221576000816000905550600101611209565b5090565b60006112386112338461184d565b611828565b90508281526020810184848401111561125057600080fd5b61125b848285611bbf565b509392505050565b60008135905061127281611eba565b92915050565b60008151905061128781611ed1565b92915050565b60008135905061129c81611ee8565b92915050565b600082601f8301126112b357600080fd5b81356112c3848260208601611225565b91505092915050565b6000813590506112db81611eff565b92915050565b6000602082840312156112f357600080fd5b600061130184828501611263565b91505092915050565b60006020828403121561131c57600080fd5b600061132a84828501611278565b91505092915050565b6000806040838503121561134657600080fd5b60006113548582860161128d565b9250506020611365858286016112cc565b9150509250929050565b60006020828403121561138157600080fd5b600082013567ffffffffffffffff81111561139b57600080fd5b6113a7848285016112a2565b91505092915050565b600080600080600060a086880312156113c857600080fd5b600086013567ffffffffffffffff8111156113e257600080fd5b6113ee888289016112a2565b955050602086013567ffffffffffffffff81111561140b57600080fd5b611417888289016112a2565b945050604086013567ffffffffffffffff81111561143457600080fd5b611440888289016112a2565b935050606086013567ffffffffffffffff81111561145d57600080fd5b611469888289016112a2565b925050608061147a888289016112cc565b9150509295509295909350565b60006020828403121561149957600080fd5b60006114a7848285016112cc565b91505092915050565b6114b981611b1d565b82525050565b6114c881611b0b565b82525050565b6114d781611b3b565b82525050565b6114e681611b45565b82525050565b60006114f78261187e565b6115018185611894565b9350611511818560208601611bce565b61151a81611dc8565b840191505092915050565b61153661153182611b9b565b611cad565b82525050565b600061154782611889565b61155181856118a5565b9350611561818560208601611bce565b61156a81611dc8565b840191505092915050565b60006115826023836118a5565b915061158d82611df3565b604082019050919050565b60006115a5601a836118a5565b91506115b082611e42565b602082019050919050565b60006115c86028836118a5565b91506115d382611e6b565b604082019050919050565b6115e781611b91565b82525050565b6115fe6115f982611b91565b611cd1565b82525050565b60006116108285611525565b60148201915061162082846115ed565b6020820191508190509392505050565b600060c08201905061164560008301896114b0565b8181036020830152611657818861153c565b9050818103604083015261166b818761153c565b9050818103606083015261167f818661153c565b90508181036080830152611693818561153c565b90506116a260a08301846115de565b979650505050505050565b6000610100820190506116c3600083018b6114bf565b6116d0602083018a6115de565b6116dd60408301896114ce565b6116ea60608301886114bf565b6116f760808301876114dd565b61170460a08301866115de565b61171160c08301856115de565b81810360e083015261172381846114ec565b90509998505050505050505050565b600060608201905061174760008301866114bf565b61175460208301856115de565b818103604083015261176681846114ec565b9050949350505050565b600060208201905061178560008301846114ce565b92915050565b600060208201905081810360008301526117a5818461153c565b905092915050565b600060208201905081810360008301526117c681611575565b9050919050565b600060208201905081810360008301526117e681611598565b9050919050565b60006020820190508181036000830152611806816115bb565b9050919050565b600060208201905061182260008301846115de565b92915050565b6000611832611843565b905061183e8282611c33565b919050565b6000604051905090565b600067ffffffffffffffff82111561186857611867611d99565b5b61187182611dc8565b9050602081019050919050565b600081519050919050565b600081519050919050565b600082825260208201905092915050565b600082825260208201905092915050565b60006118c182611b91565b91506118cc83611b91565b9250827fffffffffffffffffffffffffffffffffffffffffffffffffffffffffffffffff0382111561190157611900611d0c565b5b828201905092915050565b6000808291508390505b60018511156119565780860481111561193257611931611d0c565b5b60018516156119415780820291505b808102905061194f85611de6565b9450611916565b94509492505050565b600061196a82611b91565b915061197583611b91565b92506119a27fffffffffffffffffffffffffffffffffffffffffffffffffffffffffffffffff84846119aa565b905092915050565b6000826119ba5760019050611a76565b816119c85760009050611a76565b81600181146119de57600281146119e857611a17565b6001915050611a76565b60ff8411156119fa576119f9611d0c565b5b8360020a915084821115611a1157611a10611d0c565b5b50611a76565b5060208310610133831016604e8410600b8410161715611a4c5782820a905083811115611a4757611a46611d0c565b5b611a76565b611a59848484600161190c565b92509050818404811115611a7057611a6f611d0c565b5b81810290505b9392505050565b6000611a8882611b91565b9150611a9383611b91565b9250817fffffffffffffffffffffffffffffffffffffffffffffffffffffffffffffffff0483118215151615611acc57611acb611d0c565b5b828202905092915050565b6000611ae282611b91565b9150611aed83611b91565b925082821015611b0057611aff611d0c565b5b828203905092915050565b6000611b1682611b71565b9050919050565b6000611b2882611b71565b9050919050565b60008115159050919050565b6000819050919050565b60007fffffffff0000000000000000000000000000000000000000000000000000000082169050919050565b600073ffffffffffffffffffffffffffffffffffffffff82169050919050565b6000819050919050565b6000611ba682611bad565b9050919050565b6000611bb882611b71565b9050919050565b82818337600083830152505050565b60005b83811015611bec578082015181840152602081019050611bd1565b83811115611bfb576000848401525b50505050565b60006002820490506001821680611c1957607f821691505b60208210811415611c2d57611c2c611d6a565b5b50919050565b611c3c82611dc8565b810181811067ffffffffffffffff82111715611c5b57611c5a611d99565b5b80604052505050565b6000611c6f82611b91565b91507fffffffffffffffffffffffffffffffffffffffffffffffffffffffffffffffff821415611ca257611ca1611d0c565b5b600182019050919050565b6000611cb882611cbf565b9050919050565b6000611cca82611dd9565b9050919050565b6000819050919050565b6000611ce682611b91565b9150611cf183611b91565b925082611d0157611d00611d3b565b5b828206905092915050565b7f4e487b7100000000000000000000000000000000000000000000000000000000600052601160045260246000fd5b7f4e487b7100000000000000000000000000000000000000000000000000000000600052601260045260246000fd5b7f4e487b7100000000000000000000000000000000000000000000000000000000600052602260045260246000fd5b7f4e487b7100000000000000000000000000000000000000000000000000000000600052604160045260246000fd5b6000601f19601f8301169050919050565b60008160601b9050919050565b60008160011c9050919050565b7f756e61626c6520746f207472616e73666572416e6443616c6c20746f206f726160008201527f636c650000000000000000000000000000000000000000000000000000000000602082015250565b7f506c6561736520656e74657220612076616c6964207072696365000000000000600082015250565b7f536f75726365206d75737420626520746865206f7261636c65206f662074686560008201527f2072657175657374000000000000000000000000000000000000000000000000602082015250565b611ec381611b0b565b8114611ece57600080fd5b50565b611eda81611b2f565b8114611ee557600080fd5b50565b611ef181611b3b565b8114611efc57600080fd5b50565b611f0881611b91565b8114611f1357600080fd5b5056fea26469706673582212201d0441697597151e32ffada25f25102876ee2e3928d683e6723908e8f2d7d98c64736f6c63430008040033",
  "linkReferences": {},
  "deployedLinkReferences": {}
}